{
  "contractName": "Adoption",
  "abi": [
    {
      "inputs": [],
      "payable": false,
      "stateMutability": "nonpayable",
      "type": "constructor"
    },
    {
      "anonymous": false,
      "inputs": [
        {
          "indexed": true,
          "internalType": "uint256",
          "name": "candidatesCount",
          "type": "uint256"
        }
      ],
      "name": "registeredEvent",
      "type": "event"
    },
    {
      "anonymous": false,
      "inputs": [
        {
          "indexed": true,
          "internalType": "uint256",
          "name": "_candidateId",
          "type": "uint256"
        }
      ],
      "name": "votedEvent",
      "type": "event"
    },
    {
      "constant": true,
      "inputs": [
        {
          "internalType": "uint256",
          "name": "",
          "type": "uint256"
        }
      ],
      "name": "adopters",
      "outputs": [
        {
          "internalType": "address",
          "name": "",
          "type": "address"
        }
      ],
      "payable": false,
      "stateMutability": "view",
      "type": "function"
    },
    {
      "constant": true,
      "inputs": [
        {
          "internalType": "uint256",
          "name": "",
          "type": "uint256"
        }
      ],
      "name": "candidates",
      "outputs": [
        {
          "internalType": "uint256",
          "name": "id",
          "type": "uint256"
        },
        {
          "internalType": "string",
          "name": "name",
          "type": "string"
        },
        {
          "internalType": "string",
          "name": "breed",
          "type": "string"
        },
        {
          "internalType": "uint256",
          "name": "age",
          "type": "uint256"
        },
        {
          "internalType": "string",
          "name": "loc",
          "type": "string"
        },
        {
          "internalType": "string",
          "name": "img",
          "type": "string"
        },
        {
          "internalType": "uint256",
          "name": "voteCount",
          "type": "uint256"
        }
      ],
      "payable": false,
      "stateMutability": "view",
      "type": "function"
    },
    {
      "constant": true,
      "inputs": [],
      "name": "candidatesCount",
      "outputs": [
        {
          "internalType": "uint256",
          "name": "",
          "type": "uint256"
        }
      ],
      "payable": false,
      "stateMutability": "view",
      "type": "function"
    },
    {
      "constant": true,
      "inputs": [
        {
          "internalType": "address",
          "name": "",
          "type": "address"
        }
      ],
      "name": "voters",
      "outputs": [
        {
          "internalType": "bool",
          "name": "",
          "type": "bool"
        }
      ],
      "payable": false,
      "stateMutability": "view",
      "type": "function"
    },
    {
      "constant": false,
      "inputs": [
        {
          "internalType": "uint256",
          "name": "petId",
          "type": "uint256"
        }
      ],
      "name": "adopt",
      "outputs": [
        {
          "internalType": "uint256",
          "name": "",
          "type": "uint256"
        }
      ],
      "payable": false,
      "stateMutability": "nonpayable",
      "type": "function"
    },
    {
      "constant": true,
      "inputs": [],
      "name": "getAdopters",
      "outputs": [
        {
          "internalType": "address[16]",
          "name": "",
          "type": "address[16]"
        }
      ],
      "payable": false,
      "stateMutability": "view",
      "type": "function"
    },
    {
      "constant": false,
      "inputs": [
        {
          "internalType": "uint256",
          "name": "petId",
          "type": "uint256"
        }
      ],
      "name": "returnPet",
      "outputs": [
        {
          "internalType": "uint256",
          "name": "",
          "type": "uint256"
        }
      ],
      "payable": false,
      "stateMutability": "nonpayable",
      "type": "function"
    },
    {
      "constant": false,
      "inputs": [
        {
          "internalType": "uint256",
          "name": "_candidateId",
          "type": "uint256"
        }
      ],
      "name": "vote",
      "outputs": [],
      "payable": false,
      "stateMutability": "nonpayable",
      "type": "function"
    },
    {
      "constant": false,
      "inputs": [
        {
          "internalType": "string",
          "name": "_name",
          "type": "string"
        },
        {
          "internalType": "string",
          "name": "_breed",
          "type": "string"
        },
        {
          "internalType": "uint256",
          "name": "_age",
          "type": "uint256"
        },
        {
          "internalType": "string",
          "name": "_loc",
          "type": "string"
        },
        {
          "internalType": "string",
          "name": "_img",
          "type": "string"
        }
      ],
      "name": "register",
      "outputs": [],
      "payable": false,
      "stateMutability": "nonpayable",
      "type": "function"
    }
  ],
  "bytecode": "0x60806040523480156200001157600080fd5b50620000fc6040518060400160405280600681526020017f46726965646100000000000000000000000000000000000000000000000000008152506040518060400160405280601081526020017f53636f747469736820546572726965720000000000000000000000000000000081525060036040518060400160405280600e81526020017f4c6973636f2c20416c6162616d610000000000000000000000000000000000008152506040518060400160405280601c81526020017f696d616765732f73636f74746973682d746572726965722e6a7065670000000081525062000eb860201b60201c565b620001e66040518060400160405280600481526020017f47696e61000000000000000000000000000000000000000000000000000000008152506040518060400160405280601081526020017f53636f747469736820546572726965720000000000000000000000000000000081525060036040518060400160405280601981526020017f546f6f6c6576696c6c652c20576573742056697267696e6961000000000000008152506040518060400160405280601c81526020017f696d616765732f73636f74746973682d746572726965722e6a7065670000000081525062000eb860201b60201c565b620002d06040518060400160405280600781526020017f436f6c6c696e73000000000000000000000000000000000000000000000000008152506040518060400160405280600e81526020017f4672656e63682042756c6c646f6700000000000000000000000000000000000081525060026040518060400160405280600f81526020017f467265656275726e2c20496461686f00000000000000000000000000000000008152506040518060400160405280601a81526020017f696d616765732f6672656e63682d62756c6c646f672e6a70656700000000000081525062000eb860201b60201c565b620003ba6040518060400160405280600781526020017f4d656c69737361000000000000000000000000000000000000000000000000008152506040518060400160405280600581526020017f426f78657200000000000000000000000000000000000000000000000000000081525060026040518060400160405280601381526020017f43616d61732c2050656e6e73796c76616e6961000000000000000000000000008152506040518060400160405280601181526020017f696d616765732f626f7865722e6a70656700000000000000000000000000000081525062000eb860201b60201c565b620004a46040518060400160405280600781526020017f4a65616e696e65000000000000000000000000000000000000000000000000008152506040518060400160405280600e81526020017f4672656e63682042756c6c646f6700000000000000000000000000000000000081525060026040518060400160405280601481526020017f4765726265722c20536f7574682044616b6f74610000000000000000000000008152506040518060400160405280601a81526020017f696d616765732f6672656e63682d62756c6c646f672e6a70656700000000000081525062000eb860201b60201c565b6200058e6040518060400160405280600581526020017f456c7669610000000000000000000000000000000000000000000000000000008152506040518060400160405280600e81526020017f4672656e63682042756c6c646f6700000000000000000000000000000000000081525060036040518060400160405280601381526020017f496e6e7362726f6f6b2c20496c6c696e6f6973000000000000000000000000008152506040518060400160405280601a81526020017f696d616765732f6672656e63682d62756c6c646f672e6a70656700000000000081525062000eb860201b60201c565b620006786040518060400160405280600781526020017f4c617469736861000000000000000000000000000000000000000000000000008152506040518060400160405280601081526020017f476f6c64656e205265747269657665720000000000000000000000000000000081525060036040518060400160405280601181526020017f536f7564616e2c204c6f75697369616e610000000000000000000000000000008152506040518060400160405280601c81526020017f696d616765732f676f6c64656e2d7265747269657665722e6a7065670000000081525062000eb860201b60201c565b620007626040518060400160405280600781526020017f436f6c656d616e000000000000000000000000000000000000000000000000008152506040518060400160405280601081526020017f476f6c64656e205265747269657665720000000000000000000000000000000081525060036040518060400160405280601281526020017f4a61636b736f6e77616c642c2050616c617500000000000000000000000000008152506040518060400160405280601c81526020017f696d616765732f676f6c64656e2d7265747269657665722e6a7065670000000081525062000eb860201b60201c565b6200084c6040518060400160405280600781526020017f4e6963686f6c65000000000000000000000000000000000000000000000000008152506040518060400160405280600e81526020017f4672656e63682042756c6c646f6700000000000000000000000000000000000081525060026040518060400160405280601081526020017f486f6e6f6c756c752c20486177616969000000000000000000000000000000008152506040518060400160405280601a81526020017f696d616765732f6672656e63682d62756c6c646f672e6a70656700000000000081525062000eb860201b60201c565b620009366040518060400160405280600481526020017f4672616e000000000000000000000000000000000000000000000000000000008152506040518060400160405280600581526020017f426f78657200000000000000000000000000000000000000000000000000000081525060036040518060400160405280600d81526020017f4d617468656e792c2055746168000000000000000000000000000000000000008152506040518060400160405280601181526020017f696d616765732f626f7865722e6a70656700000000000000000000000000000081525062000eb860201b60201c565b62000a206040518060400160405280600681526020017f4c656f6e6f7200000000000000000000000000000000000000000000000000008152506040518060400160405280600581526020017f426f78657200000000000000000000000000000000000000000000000000000081525060026040518060400160405280600e81526020017f54796865652c20496e6469616e610000000000000000000000000000000000008152506040518060400160405280601181526020017f696d616765732f626f7865722e6a70656700000000000000000000000000000081525062000eb860201b60201c565b62000b0a6040518060400160405280600481526020017f4465616e000000000000000000000000000000000000000000000000000000008152506040518060400160405280601081526020017f53636f747469736820546572726965720000000000000000000000000000000081525060036040518060400160405280601081526020017f57696e64736f722c204d6f6e74616e61000000000000000000000000000000008152506040518060400160405280601c81526020017f696d616765732f73636f74746973682d746572726965722e6a7065670000000081525062000eb860201b60201c565b62000bf46040518060400160405280600981526020017f53746576656e736f6e00000000000000000000000000000000000000000000008152506040518060400160405280600e81526020017f4672656e63682042756c6c646f6700000000000000000000000000000000000081525060036040518060400160405280601281526020017f4b696e6773746f776e652c204e657661646100000000000000000000000000008152506040518060400160405280601a81526020017f696d616765732f6672656e63682d62756c6c646f672e6a70656700000000000081525062000eb860201b60201c565b62000cde6040518060400160405280600881526020017f4b72697374696e610000000000000000000000000000000000000000000000008152506040518060400160405280601081526020017f476f6c64656e205265747269657665720000000000000000000000000000000081525060046040518060400160405280601681526020017f53756c74616e612c204d617373616368757365747473000000000000000000008152506040518060400160405280601c81526020017f696d616765732f676f6c64656e2d7265747269657665722e6a7065670000000081525062000eb860201b60201c565b62000dc86040518060400160405280600581526020017f457468656c0000000000000000000000000000000000000000000000000000008152506040518060400160405280601081526020017f476f6c64656e205265747269657665720000000000000000000000000000000081525060026040518060400160405280601281526020017f42726f61646c616e64732c204f7265676f6e00000000000000000000000000008152506040518060400160405280601c81526020017f696d616765732f676f6c64656e2d7265747269657665722e6a7065670000000081525062000eb860201b60201c565b62000eb26040518060400160405280600581526020017f54657272790000000000000000000000000000000000000000000000000000008152506040518060400160405280601081526020017f476f6c64656e205265747269657665720000000000000000000000000000000081525060026040518060400160405280600f81526020017f4461776e2c20576973636f6e73696e00000000000000000000000000000000008152506040518060400160405280601c81526020017f696d616765732f676f6c64656e2d7265747269657665722e6a7065670000000081525062000eb860201b60201c565b62001068565b6012600081548092919060010191905055506040518060e001604052806012548152602001868152602001858152602001848152602001838152602001828152602001600081525060116000601254815260200190815260200160002060008201518160000155602082015181600101908051906020019062000f3d92919062000fb9565b50604082015181600201908051906020019062000f5c92919062000fb9565b5060608201518160030155608082015181600401908051906020019062000f8592919062000fb9565b5060a082015181600501908051906020019062000fa492919062000fb9565b5060c082015181600601559050505050505050565b828054600181600116156101000203166002900490600052602060002090601f016020900481019282601f1062000ffc57805160ff19168380011785556200102d565b828001600101855582156200102d579182015b828111156200102c5782518255916020019190600101906200100f565b5b5090506200103c919062001040565b5090565b6200106591905b808211156200106157600081600090555060010162001047565b5090565b90565b610f1c80620010786000396000f3fe608060405234801561001057600080fd5b50600436106100935760003560e01c806343ae80d31161006657806343ae80d31461032a5780638499cfe3146103985780638588b2c514610622578063a3ec138d14610664578063bdb92e8e146106c057610093565b80630121b93f146100985780632d35a8a2146100c65780633477ee2e146100e45780633de4eb17146102e4575b600080fd5b6100c4600480360360208110156100ae57600080fd5b8101908080359060200190929190505050610702565b005b6100ce610822565b6040518082815260200191505060405180910390f35b610110600480360360208110156100fa57600080fd5b8101908080359060200190929190505050610828565b604051808881526020018060200180602001878152602001806020018060200186815260200185810385528b818151815260200191508051906020019080838360005b8381101561016e578082015181840152602081019050610153565b50505050905090810190601f16801561019b5780820380516001836020036101000a031916815260200191505b5085810384528a818151815260200191508051906020019080838360005b838110156101d45780820151818401526020810190506101b9565b50505050905090810190601f1680156102015780820380516001836020036101000a031916815260200191505b50858103835288818151815260200191508051906020019080838360005b8381101561023a57808201518184015260208101905061021f565b50505050905090810190601f1680156102675780820380516001836020036101000a031916815260200191505b50858103825287818151815260200191508051906020019080838360005b838110156102a0578082015181840152602081019050610285565b50505050905090810190601f1680156102cd5780820380516001836020036101000a031916815260200191505b509b50505050505050505050505060405180910390f35b6102ec610aca565b6040518082601060200280838360005b838110156103175780820151818401526020810190506102fc565b5050505090500191505060405180910390f35b6103566004803603602081101561034057600080fd5b8101908080359060200190929190505050610b4b565b604051808273ffffffffffffffffffffffffffffffffffffffff1673ffffffffffffffffffffffffffffffffffffffff16815260200191505060405180910390f35b610620600480360360a08110156103ae57600080fd5b81019080803590602001906401000000008111156103cb57600080fd5b8201836020820111156103dd57600080fd5b803590602001918460018302840111640100000000831117156103ff57600080fd5b91908080601f016020809104026020016040519081016040528093929190818152602001838380828437600081840152601f19601f8201169050808301925050505050505091929192908035906020019064010000000081111561046257600080fd5b82018360208201111561047457600080fd5b8035906020019184600183028401116401000000008311171561049657600080fd5b91908080601f016020809104026020016040519081016040528093929190818152602001838380828437600081840152601f19601f820116905080830192505050505050509192919290803590602001909291908035906020019064010000000081111561050357600080fd5b82018360208201111561051557600080fd5b8035906020019184600183028401116401000000008311171561053757600080fd5b91908080601f016020809104026020016040519081016040528093929190818152602001838380828437600081840152601f19601f8201169050808301925050505050505091929192908035906020019064010000000081111561059a57600080fd5b8201836020820111156105ac57600080fd5b803590602001918460018302840111640100000000831117156105ce57600080fd5b91908080601f016020809104026020016040519081016040528093929190818152602001838380828437600081840152601f19601f820116905080830192505050505050509192919290505050610b7e565b005b61064e6004803603602081101561063857600080fd5b8101908080359060200190929190505050610bc1565b6040518082815260200191505060405180910390f35b6106a66004803603602081101561067a57600080fd5b81019080803573ffffffffffffffffffffffffffffffffffffffff169060200190929190505050610c32565b604051808215151515815260200191505060405180910390f35b6106ec600480360360208110156106d657600080fd5b8101908080359060200190929190505050610c52565b6040518082815260200191505060405180910390f35b601060003373ffffffffffffffffffffffffffffffffffffffff1673ffffffffffffffffffffffffffffffffffffffff16815260200190815260200160002060009054906101000a900460ff161561075957600080fd5b60008111801561076b57506012548111155b61077457600080fd5b6001601060003373ffffffffffffffffffffffffffffffffffffffff1673ffffffffffffffffffffffffffffffffffffffff16815260200190815260200160002060006101000a81548160ff0219169083151502179055506011600082815260200190815260200160002060060160008154809291906001019190505550807ffff3c900d938d21d0990d786e819f29b8d05c1ef587b462b939609625b684b1660405160405180910390a250565b60125481565b6011602052806000526040600020600091509050806000015490806001018054600181600116156101000203166002900480601f0160208091040260200160405190810160405280929190818152602001828054600181600116156101000203166002900480156108da5780601f106108af576101008083540402835291602001916108da565b820191906000526020600020905b8154815290600101906020018083116108bd57829003601f168201915b505050505090806002018054600181600116156101000203166002900480601f0160208091040260200160405190810160405280929190818152602001828054600181600116156101000203166002900480156109785780601f1061094d57610100808354040283529160200191610978565b820191906000526020600020905b81548152906001019060200180831161095b57829003601f168201915b505050505090806003015490806004018054600181600116156101000203166002900480601f016020809104026020016040519081016040528092919081815260200182805460018160011615610100020316600290048015610a1c5780601f106109f157610100808354040283529160200191610a1c565b820191906000526020600020905b8154815290600101906020018083116109ff57829003601f168201915b505050505090806005018054600181600116156101000203166002900480601f016020809104026020016040519081016040528092919081815260200182805460018160011615610100020316600290048015610aba5780601f10610a8f57610100808354040283529160200191610aba565b820191906000526020600020905b815481529060010190602001808311610a9d57829003601f168201915b5050505050908060060154905087565b610ad2610e1f565b6000601080602002604051908101604052809291908260108015610b41576020028201915b8160009054906101000a900473ffffffffffffffffffffffffffffffffffffffff1673ffffffffffffffffffffffffffffffffffffffff1681526020019060010190808311610af7575b5050505050905090565b60008160108110610b5857fe5b016000915054906101000a900473ffffffffffffffffffffffffffffffffffffffff1681565b610b8b8585858585610d26565b6012547f9513d6c58e0790164cd5a30df6024f2632f4585829cd4fd2776e25cfcddc4ae160405160405180910390a25050505050565b6000808210158015610bd45750600f8211155b610bdd57600080fd5b3360008360108110610beb57fe5b0160006101000a81548173ffffffffffffffffffffffffffffffffffffffff021916908373ffffffffffffffffffffffffffffffffffffffff160217905550819050919050565b60106020528060005260406000206000915054906101000a900460ff1681565b6000808210158015610c655750600f8211155b610c6e57600080fd5b3373ffffffffffffffffffffffffffffffffffffffff1660008360108110610c9257fe5b0160009054906101000a900473ffffffffffffffffffffffffffffffffffffffff1673ffffffffffffffffffffffffffffffffffffffff161415610d1e576000808360108110610cde57fe5b0160006101000a81548173ffffffffffffffffffffffffffffffffffffffff021916908373ffffffffffffffffffffffffffffffffffffffff1602179055505b819050919050565b6012600081548092919060010191905055506040518060e0016040528060125481526020018681526020018581526020018481526020018381526020018281526020016000815250601160006012548152602001908152602001600020600082015181600001556020820151816001019080519060200190610da9929190610e42565b506040820151816002019080519060200190610dc6929190610e42565b50606082015181600301556080820151816004019080519060200190610ded929190610e42565b5060a0820151816005019080519060200190610e0a929190610e42565b5060c082015181600601559050505050505050565b604051806102000160405280601090602082028038833980820191505090505090565b828054600181600116156101000203166002900490600052602060002090601f016020900481019282601f10610e8357805160ff1916838001178555610eb1565b82800160010185558215610eb1579182015b82811115610eb0578251825591602001919060010190610e95565b5b509050610ebe9190610ec2565b5090565b610ee491905b80821115610ee0576000816000905550600101610ec8565b5090565b9056fea265627a7a723158200e7273c96e20a63e0890ce18b65581ccfaf2cfea081ae4756acb54388c006b7c64736f6c63430005110032",
  "source": "pragma solidity ^0.5.0;\r\n\r\ncontract Adoption {\r\n\taddress[16] public adopters;\r\n\r\n  \r\n  // Adopting a pet\r\n  function adopt(uint petId) public returns (uint) {\r\n    require(petId >= 0 && petId <= 15);\r\n\r\n    adopters[petId] = msg.sender;\r\n\r\n    return petId;\r\n  }\r\n\r\n  // Retrieving the adopters\r\n  function getAdopters() public view returns (address[16] memory) {\r\n    return adopters;\r\n  }\r\n  \r\n\r\n  function returnPet(uint petId) public returns (uint) {\r\n    require(petId >= 0 && petId <= 15);\r\n\r\n    // If the animal has been adopted by msg.sender, the pet can be returned\r\n    if (adopters[petId] == msg.sender) {\r\n      // \"Return\" an pet by setting the address of it's adopter back to 0\r\n      adopters[petId] = address(0);\r\n    }\r\n    return petId;\r\n  }\r\n\r\n  // Contract for the new voting feature.\r\n\t// Model a Candidate\r\n\tstruct Candidate {\r\n\t\t//uint id;\r\n\t\t//string name;\r\n\t\t//uint voteCount;\r\n\r\n\t\tuint id; //Added by Luke\r\n        string name; //Added by Luke\r\n        string breed; //Added by Luke\r\n        uint age; //Added by Luke\r\n        string loc; //Added by Luke\r\n        string img; //Added by Luke\r\n        uint voteCount; //Added by Luke\r\n\t}\r\n\r\n\t// Store accounts that have voted\r\n\tmapping(address => bool) public voters;\r\n\t// Store Candidates\r\n\t// Fetch Candidate\r\n\tmapping(uint => Candidate) public candidates;\r\n\t// Store Candidates Count\r\n\tuint public candidatesCount;\r\n\r\n\t// voted event\r\n\tevent votedEvent (\r\n\t\tuint indexed _candidateId\r\n\t);\r\n\r\n\t//Added by luke\r\n\tevent registeredEvent (\r\n        uint indexed candidatesCount\r\n    );\r\n\r\n\tconstructor () public {\r\n\t\t//addCandidate(\"Frieda\");\r\n\t\t//addCandidate(\"Gina\");\r\n\t\t//addCandidate(\"Collins\");\r\n\t\t//addCandidate(\"Melissa\");\r\n\t\t//addCandidate(\"Jeanine\");\r\n\t\t//addCandidate(\"Elvia\");\r\n\t\t//addCandidate(\"Latisha\");\r\n\t\t//addCandidate(\"Coleman\");\r\n\t\t//addCandidate(\"Nichole\");\r\n\t\t//addCandidate(\"Fran\");\r\n\t\t//addCandidate(\"Leonor\");\r\n\t\t//addCandidate(\"Dean\");\r\n\t\t//addCandidate(\"Stevenson\");\r\n\t\t//addCandidate(\"Kristina\");\r\n\t\t//addCandidate(\"Ethel\");\r\n\t\t//addCandidate(\"Terry\");\r\n\r\n\t\taddCandidate(\"Frieda\", \"Scottish Terrier\", 3, \"Lisco, Alabama\", \"images/scottish-terrier.jpeg\");\r\n\t\taddCandidate(\"Gina\", \"Scottish Terrier\", 3, \"Tooleville, West Virginia\", \"images/scottish-terrier.jpeg\");\r\n\t\taddCandidate(\"Collins\", \"French Bulldog\", 2, \"Freeburn, Idaho\", \"images/french-bulldog.jpeg\");\r\n\t\taddCandidate(\"Melissa\", \"Boxer\", 2, \"Camas, Pennsylvania\", \"images/boxer.jpeg\");\r\n\t\taddCandidate(\"Jeanine\", \"French Bulldog\", 2, \"Gerber, South Dakota\", \"images/french-bulldog.jpeg\");\r\n\t\taddCandidate(\"Elvia\", \"French Bulldog\", 3, \"Innsbrook, Illinois\", \"images/french-bulldog.jpeg\");\r\n\t\taddCandidate(\"Latisha\", \"Golden Retriever\", 3, \"Soudan, Louisiana\", \"images/golden-retriever.jpeg\");\r\n\t\taddCandidate(\"Coleman\", \"Golden Retriever\", 3, \"Jacksonwald, Palau\", \"images/golden-retriever.jpeg\");\r\n\t\taddCandidate(\"Nichole\", \"French Bulldog\", 2, \"Honolulu, Hawaii\", \"images/french-bulldog.jpeg\");\r\n\t\taddCandidate(\"Fran\", \"Boxer\", 3, \"Matheny, Utah\", \"images/boxer.jpeg\");\r\n\t\taddCandidate(\"Leonor\", \"Boxer\", 2, \"Tyhee, Indiana\", \"images/boxer.jpeg\");\r\n\t\taddCandidate(\"Dean\", \"Scottish Terrier\", 3, \"Windsor, Montana\", \"images/scottish-terrier.jpeg\");\r\n\t\taddCandidate(\"Stevenson\", \"French Bulldog\", 3, \"Kingstowne, Nevada\", \"images/french-bulldog.jpeg\");\r\n\t\taddCandidate(\"Kristina\", \"Golden Retriever\", 4, \"Sultana, Massachusetts\", \"images/golden-retriever.jpeg\");\r\n\t\taddCandidate(\"Ethel\", \"Golden Retriever\", 2, \"Broadlands, Oregon\", \"images/golden-retriever.jpeg\");\r\n\t\taddCandidate(\"Terry\", \"Golden Retriever\", 2, \"Dawn, Wisconsin\", \"images/golden-retriever.jpeg\");\r\n\t}\r\n\r\n\tfunction addCandidate (string memory _name, string memory _breed, uint _age, string memory _loc, string memory _img) private { //Added by luke\r\n\t//function addCandidate (string memory _name) private {\r\n\t\tcandidatesCount ++;\r\n\t\t//candidates[candidatesCount] = Candidate(candidatesCount, _name, 0);  //commented out to put in full info\r\n\t\tcandidates[candidatesCount] = Candidate(candidatesCount, _name, _breed, _age, _loc, _img, 0); //added by Luke\r\n\t}\r\n\r\n\tfunction vote (uint _candidateId) public {\r\n\t\t// require that they haven't voted before\r\n\t\trequire(!voters[msg.sender]);\r\n\r\n\t\t// require a valid candidate\r\n\t\trequire(_candidateId > 0 && _candidateId <= candidatesCount);\r\n\r\n\t\t// record that voter has voted\r\n\t\tvoters[msg.sender] = true;\r\n\r\n\t\t// update candidate vote Count\r\n\t\tcandidates[_candidateId].voteCount ++;\r\n\r\n\t\t// trigger voted event\r\n\t\temit votedEvent(_candidateId);\r\n\t}\r\n\r\n\tfunction register (string memory _name, string memory _breed, uint _age, string memory _loc, string memory _img) public {\r\n\r\n        addCandidate(_name, _breed, _age, _loc, _img); //Added by Luke\r\n\t\t//addCandidate(_name);\r\n\r\n        emit registeredEvent(candidatesCount);\r\n    }\r\n}",
  "sourcePath": "C:/Users/lukef/Documents/UofT/MEng/APS1050/Assignment/APS1050-Petshop-Arsh/contracts/Adoption.sol",
  "compiler": {
    "name": "solc",
    "version": "0.5.17+commit.d19bba13.Emscripten.clang"
  },
  "schemaVersion": "3.0.22",
  "updatedAt": "2022-04-16T03:45:12.899Z",
  "networkType": "ethereum",
  "devdoc": {
    "methods": {}
  },
  "userdoc": {
    "methods": {}
  }
}