{
  "contractName": "Adoption",
  "abi": [
    {
      "inputs": [],
      "payable": false,
      "stateMutability": "nonpayable",
      "type": "constructor"
    },
    {
      "anonymous": false,
      "inputs": [
        {
          "indexed": true,
          "internalType": "uint256",
          "name": "_candidateId",
          "type": "uint256"
        }
      ],
      "name": "votedEvent",
      "type": "event"
    },
    {
      "constant": true,
      "inputs": [
        {
          "internalType": "uint256",
          "name": "",
          "type": "uint256"
        }
      ],
      "name": "adopters",
      "outputs": [
        {
          "internalType": "address",
          "name": "",
          "type": "address"
        }
      ],
      "payable": false,
      "stateMutability": "view",
      "type": "function"
    },
    {
      "constant": true,
      "inputs": [
        {
          "internalType": "uint256",
          "name": "",
          "type": "uint256"
        }
      ],
      "name": "candidates",
      "outputs": [
        {
          "internalType": "uint256",
          "name": "id",
          "type": "uint256"
        },
        {
          "internalType": "string",
          "name": "name",
          "type": "string"
        },
        {
          "internalType": "uint256",
          "name": "voteCount",
          "type": "uint256"
        }
      ],
      "payable": false,
      "stateMutability": "view",
      "type": "function"
    },
    {
      "constant": true,
      "inputs": [],
      "name": "candidatesCount",
      "outputs": [
        {
          "internalType": "uint256",
          "name": "",
          "type": "uint256"
        }
      ],
      "payable": false,
      "stateMutability": "view",
      "type": "function"
    },
    {
      "constant": true,
      "inputs": [
        {
          "internalType": "address",
          "name": "",
          "type": "address"
        }
      ],
      "name": "voters",
      "outputs": [
        {
          "internalType": "bool",
          "name": "",
          "type": "bool"
        }
      ],
      "payable": false,
      "stateMutability": "view",
      "type": "function"
    },
    {
      "constant": false,
      "inputs": [
        {
          "internalType": "uint256",
          "name": "petId",
          "type": "uint256"
        }
      ],
      "name": "adopt",
      "outputs": [
        {
          "internalType": "uint256",
          "name": "",
          "type": "uint256"
        }
      ],
      "payable": false,
      "stateMutability": "nonpayable",
      "type": "function"
    },
    {
      "constant": true,
      "inputs": [],
      "name": "getAdopters",
      "outputs": [
        {
          "internalType": "address[16]",
          "name": "",
          "type": "address[16]"
        }
      ],
      "payable": false,
      "stateMutability": "view",
      "type": "function"
    },
    {
      "constant": false,
      "inputs": [
        {
          "internalType": "uint256",
          "name": "petId",
          "type": "uint256"
        }
      ],
      "name": "returnPer",
      "outputs": [
        {
          "internalType": "uint256",
          "name": "",
          "type": "uint256"
        }
      ],
      "payable": false,
      "stateMutability": "nonpayable",
      "type": "function"
    },
    {
      "constant": false,
      "inputs": [
        {
          "internalType": "uint256",
          "name": "_candidateId",
          "type": "uint256"
        }
      ],
      "name": "vote",
      "outputs": [],
      "payable": false,
      "stateMutability": "nonpayable",
      "type": "function"
    }
  ],
  "bytecode": "0x60806040523480156200001157600080fd5b50620000586040518060400160405280600681526020017f46726965646100000000000000000000000000000000000000000000000000008152506200047860201b60201c565b6200009e6040518060400160405280600481526020017f47696e61000000000000000000000000000000000000000000000000000000008152506200047860201b60201c565b620000e46040518060400160405280600781526020017f436f6c6c696e73000000000000000000000000000000000000000000000000008152506200047860201b60201c565b6200012a6040518060400160405280600781526020017f4d656c69737361000000000000000000000000000000000000000000000000008152506200047860201b60201c565b620001706040518060400160405280600781526020017f4a65616e696e65000000000000000000000000000000000000000000000000008152506200047860201b60201c565b620001b66040518060400160405280600581526020017f456c7669610000000000000000000000000000000000000000000000000000008152506200047860201b60201c565b620001fc6040518060400160405280600781526020017f4c617469736861000000000000000000000000000000000000000000000000008152506200047860201b60201c565b620002426040518060400160405280600781526020017f436f6c656d616e000000000000000000000000000000000000000000000000008152506200047860201b60201c565b620002886040518060400160405280600781526020017f4e6963686f6c65000000000000000000000000000000000000000000000000008152506200047860201b60201c565b620002ce6040518060400160405280600481526020017f4672616e000000000000000000000000000000000000000000000000000000008152506200047860201b60201c565b620003146040518060400160405280600681526020017f4c656f6e6f7200000000000000000000000000000000000000000000000000008152506200047860201b60201c565b6200035a6040518060400160405280600481526020017f4465616e000000000000000000000000000000000000000000000000000000008152506200047860201b60201c565b620003a06040518060400160405280600981526020017f53746576656e736f6e00000000000000000000000000000000000000000000008152506200047860201b60201c565b620003e66040518060400160405280600881526020017f4b72697374696e610000000000000000000000000000000000000000000000008152506200047860201b60201c565b6200042c6040518060400160405280600581526020017f457468656c0000000000000000000000000000000000000000000000000000008152506200047860201b60201c565b620004726040518060400160405280600581526020017f54657272790000000000000000000000000000000000000000000000000000008152506200047860201b60201c565b620005a5565b601260008154809291906001019190505550604051806060016040528060125481526020018281526020016000815250601160006012548152602001908152602001600020600082015181600001556020820151816001019080519060200190620004e5929190620004f6565b506040820151816002015590505050565b828054600181600116156101000203166002900490600052602060002090601f016020900481019282601f106200053957805160ff19168380011785556200056a565b828001600101855582156200056a579182015b82811115620005695782518255916020019190600101906200054c565b5b5090506200057991906200057d565b5090565b620005a291905b808211156200059e57600081600090555060010162000584565b5090565b90565b61077b80620005b56000396000f3fe608060405234801561001057600080fd5b50600436106100885760003560e01c806343ae80d31161005b57806343ae80d3146101d45780638588b2c51461024257806395f10c5114610284578063a3ec138d146102c657610088565b80630121b93f1461008d5780632d35a8a2146100bb5780633477ee2e146100d95780633de4eb171461018e575b600080fd5b6100b9600480360360208110156100a357600080fd5b8101908080359060200190929190505050610322565b005b6100c3610442565b6040518082815260200191505060405180910390f35b610105600480360360208110156100ef57600080fd5b8101908080359060200190929190505050610448565b6040518084815260200180602001838152602001828103825284818151815260200191508051906020019080838360005b83811015610151578082015181840152602081019050610136565b50505050905090810190601f16801561017e5780820380516001836020036101000a031916815260200191505b5094505050505060405180910390f35b61019661050a565b6040518082601060200280838360005b838110156101c15780820151818401526020810190506101a6565b5050505090500191505060405180910390f35b610200600480360360208110156101ea57600080fd5b810190808035906020019092919050505061058b565b604051808273ffffffffffffffffffffffffffffffffffffffff1673ffffffffffffffffffffffffffffffffffffffff16815260200191505060405180910390f35b61026e6004803603602081101561025857600080fd5b81019080803590602001909291905050506105be565b6040518082815260200191505060405180910390f35b6102b06004803603602081101561029a57600080fd5b810190808035906020019092919050505061062f565b6040518082815260200191505060405180910390f35b610308600480360360208110156102dc57600080fd5b81019080803573ffffffffffffffffffffffffffffffffffffffff169060200190929190505050610703565b604051808215151515815260200191505060405180910390f35b601060003373ffffffffffffffffffffffffffffffffffffffff1673ffffffffffffffffffffffffffffffffffffffff16815260200190815260200160002060009054906101000a900460ff161561037957600080fd5b60008111801561038b57506012548111155b61039457600080fd5b6001601060003373ffffffffffffffffffffffffffffffffffffffff1673ffffffffffffffffffffffffffffffffffffffff16815260200190815260200160002060006101000a81548160ff0219169083151502179055506011600082815260200190815260200160002060020160008154809291906001019190505550807ffff3c900d938d21d0990d786e819f29b8d05c1ef587b462b939609625b684b1660405160405180910390a250565b60125481565b6011602052806000526040600020600091509050806000015490806001018054600181600116156101000203166002900480601f0160208091040260200160405190810160405280929190818152602001828054600181600116156101000203166002900480156104fa5780601f106104cf576101008083540402835291602001916104fa565b820191906000526020600020905b8154815290600101906020018083116104dd57829003601f168201915b5050505050908060020154905083565b610512610723565b6000601080602002604051908101604052809291908260108015610581576020028201915b8160009054906101000a900473ffffffffffffffffffffffffffffffffffffffff1673ffffffffffffffffffffffffffffffffffffffff1681526020019060010190808311610537575b5050505050905090565b6000816010811061059857fe5b016000915054906101000a900473ffffffffffffffffffffffffffffffffffffffff1681565b60008082101580156105d15750600f8211155b6105da57600080fd5b33600083601081106105e857fe5b0160006101000a81548173ffffffffffffffffffffffffffffffffffffffff021916908373ffffffffffffffffffffffffffffffffffffffff160217905550819050919050565b60008082101580156106425750600f8211155b61064b57600080fd5b3373ffffffffffffffffffffffffffffffffffffffff166000836010811061066f57fe5b0160009054906101000a900473ffffffffffffffffffffffffffffffffffffffff1673ffffffffffffffffffffffffffffffffffffffff1614156106fb5760008083601081106106bb57fe5b0160006101000a81548173ffffffffffffffffffffffffffffffffffffffff021916908373ffffffffffffffffffffffffffffffffffffffff1602179055505b819050919050565b60106020528060005260406000206000915054906101000a900460ff1681565b60405180610200016040528060109060208202803883398082019150509050509056fea265627a7a72315820267b895d80b62f049457e3fca67cc86001d212276a428f1ecc6a16ceb0e291db64736f6c63430005110032",
  "source": "pragma solidity ^0.5.0;\r\n\r\ncontract Adoption {\r\n\taddress[16] public adopters;\r\n\r\n\r\n  // Adopting a pet\r\n  function adopt(uint petId) public returns (uint) {\r\n    require(petId >= 0 && petId <= 15);\r\n\r\n    adopters[petId] = msg.sender;\r\n\r\n    return petId;\r\n  }\r\n\r\n  // Retrieving the adopters\r\n  function getAdopters() public view returns (address[16] memory) {\r\n    return adopters;\r\n  }\r\n  \r\n  //Returning a pet\r\n  function returnPer(uint petId) public returns(uint){\r\n    require(petId >=0 && petId <=15);\r\n    \r\n\t//if the animal has been adopted by msg.sender, the animal can be returned\r\n\tif (adopters[petId]==msg.sender){\r\n\t\t//\"Return\" an animal by setting the address of it's adopter back to 0\r\n\t\tadopters[petId]=address(0);\r\n\t}\r\n\r\n\treturn petId;    \r\n  }\r\n\r\n  // Contract for the new voting feature.\r\n  // Model a Candidate\r\n  struct Candidate {\r\n\t  uint id;\r\n\t  string name;\r\n\t  uint voteCount;\r\n  }\r\n\r\n  // Store accounts that have voted\r\n  mapping(address => bool) public voters;\r\n  // Store Candidates\r\n  // Fetch Candidate\r\n  mapping(uint => Candidate) public candidates;\r\n  // Store Candidates Count\r\n  uint public candidatesCount;\r\n\r\n  // voted event\r\n  event votedEvent (\r\n\t  uint indexed _candidateId\r\n  );\r\n\r\n  constructor () public {\r\n\t  addCandidate(\"Frieda\");\r\n\t  addCandidate(\"Gina\");\r\n\t  addCandidate(\"Collins\");\r\n\t  addCandidate(\"Melissa\");\r\n\t  addCandidate(\"Jeanine\");\r\n\t  addCandidate(\"Elvia\");\r\n\t  addCandidate(\"Latisha\");\r\n\t  addCandidate(\"Coleman\");\r\n\t  addCandidate(\"Nichole\");\r\n\t  addCandidate(\"Fran\");\r\n\t  addCandidate(\"Leonor\");\r\n\t  addCandidate(\"Dean\");\r\n\t  addCandidate(\"Stevenson\");\r\n\t  addCandidate(\"Kristina\");\r\n\t  addCandidate(\"Ethel\");\r\n\t  addCandidate(\"Terry\");\r\n  }\r\n  \r\n  function addCandidate (string memory _name) private {\r\n\t  candidatesCount ++;\r\n\t  candidates[candidatesCount] = Candidate(candidatesCount, _name, 0);\r\n  }\r\n  \r\n  function vote (uint _candidateId) public {\r\n\t  // require that they haven't voted before\r\n\t  require(!voters[msg.sender]);\r\n\t  \r\n\t  // require a valid candidate\r\n\t  require(_candidateId > 0 && _candidateId <= candidatesCount);\r\n\t  \r\n\t  // record that voter has voted\r\n\t  voters[msg.sender] = true;\r\n\t  \r\n\t  // update candidate vote Count\r\n\t  candidates[_candidateId].voteCount ++;\r\n\t  \r\n\t  // trigger voted event\r\n\t  emit votedEvent(_candidateId);\r\n  }\r\n}",
  "sourcePath": "C:/Users/arshb/OneDrive/Documents/GitHub/APS1050-Petshop/contracts/Adoption.sol",
  "compiler": {
    "name": "solc",
    "version": "0.5.17+commit.d19bba13.Emscripten.clang"
  },
  "schemaVersion": "3.0.22",
  "updatedAt": "2022-04-10T01:46:52.864Z",
  "networkType": "ethereum",
  "devdoc": {
    "methods": {}
  },
  "userdoc": {
    "methods": {}
  }
}