{
  "contractName": "SendMeEther",
  "abi": [
    {
      "inputs": [],
      "payable": false,
      "stateMutability": "nonpayable",
      "type": "constructor"
    },
    {
      "payable": true,
      "stateMutability": "payable",
      "type": "fallback"
    },
    {
      "constant": true,
      "inputs": [],
      "name": "functionCalled",
      "outputs": [
        {
          "internalType": "string",
          "name": "",
          "type": "string"
        }
      ],
      "payable": false,
      "stateMutability": "view",
      "type": "function"
    },
    {
      "constant": false,
      "inputs": [],
      "name": "receiveEther",
      "outputs": [],
      "payable": true,
      "stateMutability": "payable",
      "type": "function"
    }
  ],
  "bytecode": "0x608060405234801561001057600080fd5b506040518060400160405280600b81526020017f636f6e7374727563746f720000000000000000000000000000000000000000008152506000908051906020019061005c929190610062565b50610107565b828054600181600116156101000203166002900490600052602060002090601f016020900481019282601f106100a357805160ff19168380011785556100d1565b828001600101855582156100d1579182015b828111156100d05782518255916020019190600101906100b5565b5b5090506100de91906100e2565b5090565b61010491905b808211156101005760008160009055506001016100e8565b5090565b90565b6102d7806101166000396000f3fe6080604052600436106100295760003560e01c8063a3912ec814610077578063cc81afc814610081575b6040518060400160405280600881526020017f66616c6c6261636b000000000000000000000000000000000000000000000000815250600090805190602001906100749291906101fd565b50005b61007f610111565b005b34801561008d57600080fd5b5061009661015f565b6040518080602001828103825283818151815260200191508051906020019080838360005b838110156100d65780820151818401526020810190506100bb565b50505050905090810190601f1680156101035780820380516001836020036101000a031916815260200191505b509250505060405180910390f35b6040518060400160405280600c81526020017f72656365697665457468657200000000000000000000000000000000000000008152506000908051906020019061015c9291906101fd565b50565b60008054600181600116156101000203166002900480601f0160208091040260200160405190810160405280929190818152602001828054600181600116156101000203166002900480156101f55780601f106101ca576101008083540402835291602001916101f5565b820191906000526020600020905b8154815290600101906020018083116101d857829003601f168201915b505050505081565b828054600181600116156101000203166002900490600052602060002090601f016020900481019282601f1061023e57805160ff191683800117855561026c565b8280016001018555821561026c579182015b8281111561026b578251825591602001919060010190610250565b5b509050610279919061027d565b5090565b61029f91905b8082111561029b576000816000905550600101610283565b5090565b9056fea265627a7a723158201c4c83655141f69e3b4aff41a10d3fedeebd9102403714738e04a82eaee91e9a64736f6c63430005100032",
  "source": "pragma solidity ^0.5.0;\n\ncontract SendMeEther {\n    \n    string public functionCalled;\n    \n    //constructor of the contract SendMeEther\n    constructor() public {\n\tfunctionCalled = \"constructor\";\n    }\n\n    //function allowing an ether payment to the contract address\n    function receiveEther() external payable {\n\tfunctionCalled = \"receiveEther\";\n    }\n\n    //fallback function allowing an ether payment to the contract address \n    function() external payable {\n\tfunctionCalled = \"fallback\";\n    }\n} \n",
  "sourcePath": "C:/Users/LiyangLiu/Downloads/Homeworkpet-shop-tutorial_WEB3UPDATED/pet-shop-box-master/contracts/SendMeEther.sol",
  "compiler": {
    "name": "solc",
    "version": "0.5.16+commit.9c3226ce.Emscripten.clang"
  },
  "schemaVersion": "3.0.22",
  "updatedAt": "2022-04-03T20:50:55.823Z",
  "devdoc": {
    "methods": {}
  },
  "userdoc": {
    "methods": {}
  }
}